{
  "_format": "hh-sol-artifact-1",
  "contractName": "MerkleTokenERC1155",
  "sourceName": "contracts/MerkleTokenERC1155.sol",
  "abi": [
    {
      "inputs": [
        {
          "internalType": "bytes32",
          "name": "_root",
          "type": "bytes32"
        },
        {
          "internalType": "string",
          "name": "_name",
          "type": "string"
        },
        {
          "internalType": "string",
          "name": "_symbol",
          "type": "string"
        },
        {
          "internalType": "string",
          "name": "_contractURI",
          "type": "string"
        },
        {
          "internalType": "string",
          "name": "_baseURI",
          "type": "string"
        }
      ],
      "stateMutability": "nonpayable",
      "type": "constructor"
    },
    {
      "anonymous": false,
      "inputs": [
        {
          "indexed": true,
          "internalType": "address",
          "name": "account",
          "type": "address"
        },
        {
          "indexed": true,
          "internalType": "address",
          "name": "operator",
          "type": "address"
        },
        {
          "indexed": false,
          "internalType": "bool",
          "name": "approved",
          "type": "bool"
        }
      ],
      "name": "ApprovalForAll",
      "type": "event"
    },
    {
      "anonymous": false,
      "inputs": [
        {
          "indexed": true,
          "internalType": "address",
          "name": "previousOwner",
          "type": "address"
        },
        {
          "indexed": true,
          "internalType": "address",
          "name": "newOwner",
          "type": "address"
        }
      ],
      "name": "OwnershipTransferred",
      "type": "event"
    },
    {
      "anonymous": false,
      "inputs": [
        {
          "indexed": true,
          "internalType": "address",
          "name": "operator",
          "type": "address"
        },
        {
          "indexed": true,
          "internalType": "address",
          "name": "from",
          "type": "address"
        },
        {
          "indexed": true,
          "internalType": "address",
          "name": "to",
          "type": "address"
        },
        {
          "indexed": false,
          "internalType": "uint256[]",
          "name": "ids",
          "type": "uint256[]"
        },
        {
          "indexed": false,
          "internalType": "uint256[]",
          "name": "values",
          "type": "uint256[]"
        }
      ],
      "name": "TransferBatch",
      "type": "event"
    },
    {
      "anonymous": false,
      "inputs": [
        {
          "indexed": true,
          "internalType": "address",
          "name": "operator",
          "type": "address"
        },
        {
          "indexed": true,
          "internalType": "address",
          "name": "from",
          "type": "address"
        },
        {
          "indexed": true,
          "internalType": "address",
          "name": "to",
          "type": "address"
        },
        {
          "indexed": false,
          "internalType": "uint256",
          "name": "id",
          "type": "uint256"
        },
        {
          "indexed": false,
          "internalType": "uint256",
          "name": "value",
          "type": "uint256"
        }
      ],
      "name": "TransferSingle",
      "type": "event"
    },
    {
      "anonymous": false,
      "inputs": [
        {
          "indexed": false,
          "internalType": "string",
          "name": "value",
          "type": "string"
        },
        {
          "indexed": true,
          "internalType": "uint256",
          "name": "id",
          "type": "uint256"
        }
      ],
      "name": "URI",
      "type": "event"
    },
    {
      "inputs": [
        {
          "internalType": "address",
          "name": "account",
          "type": "address"
        },
        {
          "internalType": "uint256",
          "name": "id",
          "type": "uint256"
        }
      ],
      "name": "balanceOf",
      "outputs": [
        {
          "internalType": "uint256",
          "name": "",
          "type": "uint256"
        }
      ],
      "stateMutability": "view",
      "type": "function"
    },
    {
      "inputs": [
        {
          "internalType": "address[]",
          "name": "accounts",
          "type": "address[]"
        },
        {
          "internalType": "uint256[]",
          "name": "ids",
          "type": "uint256[]"
        }
      ],
      "name": "balanceOfBatch",
      "outputs": [
        {
          "internalType": "uint256[]",
          "name": "",
          "type": "uint256[]"
        }
      ],
      "stateMutability": "view",
      "type": "function"
    },
    {
      "inputs": [],
      "name": "baseURI",
      "outputs": [
        {
          "internalType": "string",
          "name": "",
          "type": "string"
        }
      ],
      "stateMutability": "view",
      "type": "function"
    },
    {
      "inputs": [
        {
          "internalType": "address",
          "name": "account",
          "type": "address"
        },
        {
          "internalType": "uint256",
          "name": "id",
          "type": "uint256"
        },
        {
          "internalType": "uint256",
          "name": "value",
          "type": "uint256"
        }
      ],
      "name": "burn",
      "outputs": [],
      "stateMutability": "nonpayable",
      "type": "function"
    },
    {
      "inputs": [
        {
          "internalType": "address",
          "name": "account",
          "type": "address"
        },
        {
          "internalType": "uint256[]",
          "name": "ids",
          "type": "uint256[]"
        },
        {
          "internalType": "uint256[]",
          "name": "values",
          "type": "uint256[]"
        }
      ],
      "name": "burnBatch",
      "outputs": [],
      "stateMutability": "nonpayable",
      "type": "function"
    },
    {
      "inputs": [],
      "name": "contractURI",
      "outputs": [
        {
          "internalType": "string",
          "name": "",
          "type": "string"
        }
      ],
      "stateMutability": "view",
      "type": "function"
    },
    {
      "inputs": [
        {
          "internalType": "address",
          "name": "account",
          "type": "address"
        },
        {
          "internalType": "address",
          "name": "operator",
          "type": "address"
        }
      ],
      "name": "isApprovedForAll",
      "outputs": [
        {
          "internalType": "bool",
          "name": "",
          "type": "bool"
        }
      ],
      "stateMutability": "view",
      "type": "function"
    },
    {
      "inputs": [],
      "name": "name",
      "outputs": [
        {
          "internalType": "string",
          "name": "",
          "type": "string"
        }
      ],
      "stateMutability": "view",
      "type": "function"
    },
    {
      "inputs": [],
      "name": "owner",
      "outputs": [
        {
          "internalType": "address",
          "name": "",
          "type": "address"
        }
      ],
      "stateMutability": "view",
      "type": "function"
    },
    {
      "inputs": [
        {
          "internalType": "address",
          "name": "to",
          "type": "address"
        },
        {
          "internalType": "bytes32[]",
          "name": "proof",
          "type": "bytes32[]"
        },
        {
          "internalType": "string",
          "name": "key",
          "type": "string"
        },
        {
          "internalType": "uint256",
          "name": "tokenId",
          "type": "uint256"
        }
      ],
      "name": "proofMint",
      "outputs": [],
      "stateMutability": "nonpayable",
      "type": "function"
    },
    {
      "inputs": [],
      "name": "renounceOwnership",
      "outputs": [],
      "stateMutability": "nonpayable",
      "type": "function"
    },
    {
      "inputs": [
        {
          "internalType": "address",
          "name": "from",
          "type": "address"
        },
        {
          "internalType": "address",
          "name": "to",
          "type": "address"
        },
        {
          "internalType": "uint256[]",
          "name": "ids",
          "type": "uint256[]"
        },
        {
          "internalType": "uint256[]",
          "name": "amounts",
          "type": "uint256[]"
        },
        {
          "internalType": "bytes",
          "name": "data",
          "type": "bytes"
        }
      ],
      "name": "safeBatchTransferFrom",
      "outputs": [],
      "stateMutability": "nonpayable",
      "type": "function"
    },
    {
      "inputs": [
        {
          "internalType": "address",
          "name": "from",
          "type": "address"
        },
        {
          "internalType": "address",
          "name": "to",
          "type": "address"
        },
        {
          "internalType": "uint256",
          "name": "id",
          "type": "uint256"
        },
        {
          "internalType": "uint256",
          "name": "amount",
          "type": "uint256"
        },
        {
          "internalType": "bytes",
          "name": "data",
          "type": "bytes"
        }
      ],
      "name": "safeTransferFrom",
      "outputs": [],
      "stateMutability": "nonpayable",
      "type": "function"
    },
    {
      "inputs": [
        {
          "internalType": "address",
          "name": "operator",
          "type": "address"
        },
        {
          "internalType": "bool",
          "name": "approved",
          "type": "bool"
        }
      ],
      "name": "setApprovalForAll",
      "outputs": [],
      "stateMutability": "nonpayable",
      "type": "function"
    },
    {
      "inputs": [
        {
          "internalType": "string",
          "name": "newBaseURI",
          "type": "string"
        }
      ],
      "name": "setBaseURI",
      "outputs": [],
      "stateMutability": "nonpayable",
      "type": "function"
    },
    {
      "inputs": [
        {
          "internalType": "string",
          "name": "newContractURI",
          "type": "string"
        }
      ],
      "name": "setContractURI",
      "outputs": [],
      "stateMutability": "nonpayable",
      "type": "function"
    },
    {
      "inputs": [
        {
          "internalType": "string",
          "name": "newName",
          "type": "string"
        }
      ],
      "name": "setName",
      "outputs": [],
      "stateMutability": "nonpayable",
      "type": "function"
    },
    {
      "inputs": [
        {
          "internalType": "string",
          "name": "newSymbol",
          "type": "string"
        }
      ],
      "name": "setSymbol",
      "outputs": [],
      "stateMutability": "nonpayable",
      "type": "function"
    },
    {
      "inputs": [
        {
          "internalType": "bytes4",
          "name": "interfaceId",
          "type": "bytes4"
        }
      ],
      "name": "supportsInterface",
      "outputs": [
        {
          "internalType": "bool",
          "name": "",
          "type": "bool"
        }
      ],
      "stateMutability": "view",
      "type": "function"
    },
    {
      "inputs": [],
      "name": "symbol",
      "outputs": [
        {
          "internalType": "string",
          "name": "",
          "type": "string"
        }
      ],
      "stateMutability": "view",
      "type": "function"
    },
    {
      "inputs": [
        {
          "internalType": "uint256",
          "name": "_tokenId",
          "type": "uint256"
        }
      ],
      "name": "tokenURI",
      "outputs": [
        {
          "internalType": "string",
          "name": "",
          "type": "string"
        }
      ],
      "stateMutability": "view",
      "type": "function"
    },
    {
      "inputs": [
        {
          "internalType": "address",
          "name": "newOwner",
          "type": "address"
        }
      ],
      "name": "transferOwnership",
      "outputs": [],
      "stateMutability": "nonpayable",
      "type": "function"
    },
    {
      "inputs": [
        {
          "internalType": "uint256",
          "name": "_tokenId",
          "type": "uint256"
        }
      ],
      "name": "uri",
      "outputs": [
        {
          "internalType": "string",
          "name": "",
          "type": "string"
        }
      ],
      "stateMutability": "view",
      "type": "function"
    },
    {
      "inputs": [
        {
          "internalType": "bytes32[]",
          "name": "proof",
          "type": "bytes32[]"
        },
        {
          "internalType": "string",
          "name": "key",
          "type": "string"
        },
        {
          "internalType": "uint256",
          "name": "tokenId",
          "type": "uint256"
        }
      ],
      "name": "verify",
      "outputs": [
        {
          "internalType": "bool",
          "name": "",
          "type": "bool"
        }
      ],
      "stateMutability": "view",
      "type": "function"
    }
  ],
  "bytecode": "0x60806040523480156200001157600080fd5b5060405162002742380380620027428339810160408190526200003491620001ca565b83838383806200004481620000a1565b506200005033620000b3565b60046200005e85826200031d565b5060056200006d84826200031d565b5060066200007c83826200031d565b5060076200008b82826200031d565b50505060089690965550620003e9945050505050565b6002620000af82826200031d565b5050565b600380546001600160a01b038381166001600160a01b0319831681179093556040519116919082907f8be0079c531659141344cd1fd0a4f28419497f9722a3daafe3b4186f6b6457e090600090a35050565b634e487b7160e01b600052604160045260246000fd5b600082601f8301126200012d57600080fd5b81516001600160401b03808211156200014a576200014a62000105565b604051601f8301601f19908116603f0116810190828211818310171562000175576200017562000105565b816040528381526020925086838588010111156200019257600080fd5b600091505b83821015620001b6578582018301518183018401529082019062000197565b600093810190920192909252949350505050565b600080600080600060a08688031215620001e357600080fd5b855160208701519095506001600160401b03808211156200020357600080fd5b6200021189838a016200011b565b955060408801519150808211156200022857600080fd5b6200023689838a016200011b565b945060608801519150808211156200024d57600080fd5b6200025b89838a016200011b565b935060808801519150808211156200027257600080fd5b5062000281888289016200011b565b9150509295509295909350565b600181811c90821680620002a357607f821691505b602082108103620002c457634e487b7160e01b600052602260045260246000fd5b50919050565b601f8211156200031857600081815260208120601f850160051c81016020861015620002f35750805b601f850160051c820191505b818110156200031457828155600101620002ff565b5050505b505050565b81516001600160401b0381111562000339576200033962000105565b62000351816200034a84546200028e565b84620002ca565b602080601f831160018114620003895760008415620003705750858301515b600019600386901b1c1916600185901b17855562000314565b600085815260208120601f198616915b82811015620003ba5788860151825594840194600190910190840162000399565b5085821015620003d95787850151600019600388901b60f8161c191681555b5050505050600190811b01905550565b61234980620003f96000396000f3fe608060405234801561001057600080fd5b50600436106101975760003560e01c8063938e3d7b116100e3578063c87b56dd1161008c578063f242432a11610066578063f242432a14610364578063f2fde38b14610377578063f5298aca1461038a57600080fd5b8063c87b56dd1461030d578063e8a3d48514610320578063e985e9c51461032857600080fd5b8063a22cb465116100bd578063a22cb465146102d4578063b84c8246146102e7578063c47f0027146102fa57600080fd5b8063938e3d7b146102a657806395d89b41146102b9578063a09b3ee3146102c157600080fd5b806355f804b3116101455780636c0360eb1161011f5780636c0360eb1461027b578063715018a6146102835780638da5cb5b1461028b57600080fd5b806355f804b3146102425780636313d473146102555780636b20c4541461026857600080fd5b80630e89341c116101765780630e89341c146101fa5780632eb2c2d61461020d5780634e1273f41461022257600080fd5b8062fdd58e1461019c57806301ffc9a7146101c257806306fdde03146101e5575b600080fd5b6101af6101aa3660046116a8565b61039d565b6040519081526020015b60405180910390f35b6101d56101d03660046116e8565b610436565b60405190151581526020016101b9565b6101ed610486565b6040516101b99190611755565b6101ed610208366004611768565b610514565b61022061021b3660046118cd565b610548565b005b610235610230366004611977565b610594565b6040516101b99190611a7d565b610220610250366004611a90565b6106be565b610220610263366004611acd565b6106d6565b610220610276366004611b49565b6107b4565b6101ed6107fc565b610220610809565b6003546040516001600160a01b0390911681526020016101b9565b6102206102b4366004611a90565b61081d565b6101ed610831565b6101d56102cf366004611bbd565b61083e565b6102206102e2366004611c2a565b6108dd565b6102206102f5366004611a90565b6108e8565b610220610308366004611a90565b6108fc565b6101ed61031b366004611768565b610910565b6101ed61091b565b6101d5610336366004611c66565b6001600160a01b03918216600090815260016020908152604080832093909416825291909152205460ff1690565b610220610372366004611c99565b610928565b610220610385366004611cfe565b61096d565b610220610398366004611d19565b6109e6565b60006001600160a01b03831661040d5760405162461bcd60e51b815260206004820152602a60248201527f455243313135353a2061646472657373207a65726f206973206e6f742061207660448201526930b634b21037bbb732b960b11b60648201526084015b60405180910390fd5b506000818152602081815260408083206001600160a01b03861684529091529020545b92915050565b60006001600160e01b03198216636cdb3d1360e11b148061046757506001600160e01b031982166303a24d0760e21b145b8061043057506301ffc9a760e01b6001600160e01b0319831614610430565b6004805461049390611d4c565b80601f01602080910402602001604051908101604052809291908181526020018280546104bf90611d4c565b801561050c5780601f106104e15761010080835404028352916020019161050c565b820191906000526020600020905b8154815290600101906020018083116104ef57829003601f168201915b505050505081565b6060600761052183610a29565b604051602001610532929190611d86565b6040516020818303038152906040529050919050565b6001600160a01b03851633148061056457506105648533610336565b6105805760405162461bcd60e51b815260040161040490611e0d565b61058d8585858585610abc565b5050505050565b606081518351146105f95760405162461bcd60e51b815260206004820152602960248201527f455243313135353a206163636f756e747320616e6420696473206c656e677468604482015268040dad2e6dac2e8c6d60bb1b6064820152608401610404565b6000835167ffffffffffffffff81111561061557610615611781565b60405190808252806020026020018201604052801561063e578160200160208202803683370190505b50905060005b84518110156106b65761068985828151811061066257610662611e5b565b602002602001015185838151811061067c5761067c611e5b565b602002602001015161039d565b82828151811061069b5761069b611e5b565b60209081029190910101526106af81611e87565b9050610644565b509392505050565b6106c6610c58565b60076106d28282611ee6565b5050565b6106e183838361083e565b6106ea57600080fd5b6001600160a01b038416600090815260096020908152604080832084845290915290205460ff161561076d5760405162461bcd60e51b815260206004820152602660248201527f4f6e6c79206f6e65206d696e74696e672070657220746f6b656e20494420706560448201526539102ab9b2b960d11b6064820152608401610404565b3360009081526009602090815260408083208484528252808320805460ff1916600190811790915581519283019091529181526107ae918691849190610cb2565b50505050565b6001600160a01b0383163314806107d057506107d08333610336565b6107ec5760405162461bcd60e51b815260040161040490611e0d565b6107f7838383610dc6565b505050565b6007805461049390611d4c565b610811610c58565b61081b6000610f50565b565b610825610c58565b60066106d28282611ee6565b6005805461049390611d4c565b6000808383604051602001610854929190611fa6565b60408051601f19818403018152828252805160209182012090830152016040516020818303038152906040528051906020012090506108968560085483610faf565b6108d25760405162461bcd60e51b815260206004820152600d60248201526c24b73b30b634b210383937b7b360991b6044820152606401610404565b506001949350505050565b6106d2338383610fc5565b6108f0610c58565b60056106d28282611ee6565b610904610c58565b60046106d28282611ee6565b606061043082610514565b6006805461049390611d4c565b6001600160a01b03851633148061094457506109448533610336565b6109605760405162461bcd60e51b815260040161040490611e0d565b61058d85858585856110a5565b610975610c58565b6001600160a01b0381166109da5760405162461bcd60e51b815260206004820152602660248201527f4f776e61626c653a206e6577206f776e657220697320746865207a65726f206160448201526564647265737360d01b6064820152608401610404565b6109e381610f50565b50565b6001600160a01b038316331480610a025750610a028333610336565b610a1e5760405162461bcd60e51b815260040161040490611e0d565b6107f78383836111cf565b60606000610a36836112d3565b600101905060008167ffffffffffffffff811115610a5657610a56611781565b6040519080825280601f01601f191660200182016040528015610a80576020820181803683370190505b5090508181016020015b600019016f181899199a1a9b1b9c1cb0b131b232b360811b600a86061a8153600a8504945084610a8a57509392505050565b8151835114610add5760405162461bcd60e51b815260040161040490611fc8565b6001600160a01b038416610b035760405162461bcd60e51b815260040161040490612010565b3360005b8451811015610bea576000858281518110610b2457610b24611e5b565b602002602001015190506000858381518110610b4257610b42611e5b565b602090810291909101810151600084815280835260408082206001600160a01b038e168352909352919091205490915081811015610b925760405162461bcd60e51b815260040161040490612055565b6000838152602081815260408083206001600160a01b038e8116855292528083208585039055908b16825281208054849290610bcf90849061209f565b9250508190555050505080610be390611e87565b9050610b07565b50846001600160a01b0316866001600160a01b0316826001600160a01b03167f4a39dc06d4c0dbc64b70af90fd698a233a518aa5d07e595d983b8c0526c8f7fb8787604051610c3a9291906120b2565b60405180910390a4610c508187878787876113ab565b505050505050565b6003546001600160a01b0316331461081b5760405162461bcd60e51b815260206004820181905260248201527f4f776e61626c653a2063616c6c6572206973206e6f7420746865206f776e65726044820152606401610404565b6001600160a01b038416610d125760405162461bcd60e51b815260206004820152602160248201527f455243313135353a206d696e7420746f20746865207a65726f206164647265736044820152607360f81b6064820152608401610404565b336000610d1e8561150f565b90506000610d2b8561150f565b90506000868152602081815260408083206001600160a01b038b16845290915281208054879290610d5d90849061209f565b909155505060408051878152602081018790526001600160a01b03808a1692600092918716917fc3d58168c5ae7397731d063d5bbf3d657854427343f4c083240f7aacaa2d0f62910160405180910390a4610dbd8360008989898961155a565b50505050505050565b6001600160a01b038316610dec5760405162461bcd60e51b8152600401610404906120e0565b8051825114610e0d5760405162461bcd60e51b815260040161040490611fc8565b604080516020810190915260009081905233905b8351811015610ee3576000848281518110610e3e57610e3e611e5b565b602002602001015190506000848381518110610e5c57610e5c611e5b565b602090810291909101810151600084815280835260408082206001600160a01b038c168352909352919091205490915081811015610eac5760405162461bcd60e51b815260040161040490612123565b6000928352602083815260408085206001600160a01b038b1686529091529092209103905580610edb81611e87565b915050610e21565b5060006001600160a01b0316846001600160a01b0316826001600160a01b03167f4a39dc06d4c0dbc64b70af90fd698a233a518aa5d07e595d983b8c0526c8f7fb8686604051610f349291906120b2565b60405180910390a46040805160208101909152600090526107ae565b600380546001600160a01b0383811673ffffffffffffffffffffffffffffffffffffffff19831681179093556040519116919082907f8be0079c531659141344cd1fd0a4f28419497f9722a3daafe3b4186f6b6457e090600090a35050565b600082610fbc8584611615565b14949350505050565b816001600160a01b0316836001600160a01b0316036110385760405162461bcd60e51b815260206004820152602960248201527f455243313135353a2073657474696e6720617070726f76616c20737461747573604482015268103337b91039b2b63360b91b6064820152608401610404565b6001600160a01b03838116600081815260016020908152604080832094871680845294825291829020805460ff191686151590811790915591519182527f17307eab39ab6107e8899845ad3d59bd9653f200f220920489ca2b5937696c31910160405180910390a3505050565b6001600160a01b0384166110cb5760405162461bcd60e51b815260040161040490612010565b3360006110d78561150f565b905060006110e48561150f565b90506000868152602081815260408083206001600160a01b038c168452909152902054858110156111275760405162461bcd60e51b815260040161040490612055565b6000878152602081815260408083206001600160a01b038d8116855292528083208985039055908a1682528120805488929061116490849061209f565b909155505060408051888152602081018890526001600160a01b03808b16928c821692918816917fc3d58168c5ae7397731d063d5bbf3d657854427343f4c083240f7aacaa2d0f62910160405180910390a46111c4848a8a8a8a8a61155a565b505050505050505050565b6001600160a01b0383166111f55760405162461bcd60e51b8152600401610404906120e0565b3360006112018461150f565b9050600061120e8461150f565b60408051602080820183526000918290528882528181528282206001600160a01b038b168352905220549091508481101561125b5760405162461bcd60e51b815260040161040490612123565b6000868152602081815260408083206001600160a01b038b81168086529184528285208a8703905582518b81529384018a90529092908816917fc3d58168c5ae7397731d063d5bbf3d657854427343f4c083240f7aacaa2d0f62910160405180910390a4604080516020810190915260009052610dbd565b60008072184f03e93ff9f4daa797ed6e38ed64bf6a1f0160401b83106113125772184f03e93ff9f4daa797ed6e38ed64bf6a1f0160401b830492506040015b6d04ee2d6d415b85acef8100000000831061133e576d04ee2d6d415b85acef8100000000830492506020015b662386f26fc10000831061135c57662386f26fc10000830492506010015b6305f5e1008310611374576305f5e100830492506008015b612710831061138857612710830492506004015b6064831061139a576064830492506002015b600a83106104305760010192915050565b6001600160a01b0384163b15610c505760405163bc197c8160e01b81526001600160a01b0385169063bc197c81906113ef9089908990889088908890600401612167565b6020604051808303816000875af192505050801561142a575060408051601f3d908101601f19168201909252611427918101906121c5565b60015b6114df576114366121e2565b806308c379a00361146f575061144a6121fe565b806114555750611471565b8060405162461bcd60e51b81526004016104049190611755565b505b60405162461bcd60e51b815260206004820152603460248201527f455243313135353a207472616e7366657220746f206e6f6e2d4552433131353560448201527f526563656976657220696d706c656d656e7465720000000000000000000000006064820152608401610404565b6001600160e01b0319811663bc197c8160e01b14610dbd5760405162461bcd60e51b815260040161040490612288565b6040805160018082528183019092526060916000919060208083019080368337019050509050828160008151811061154957611549611e5b565b602090810291909101015292915050565b6001600160a01b0384163b15610c505760405163f23a6e6160e01b81526001600160a01b0385169063f23a6e619061159e90899089908890889088906004016122d0565b6020604051808303816000875af19250505080156115d9575060408051601f3d908101601f191682019092526115d6918101906121c5565b60015b6115e5576114366121e2565b6001600160e01b0319811663f23a6e6160e01b14610dbd5760405162461bcd60e51b815260040161040490612288565b600081815b84518110156106b6576116468286838151811061163957611639611e5b565b602002602001015161165a565b91508061165281611e87565b91505061161a565b6000818310611676576000828152602084905260409020611685565b60008381526020839052604090205b9392505050565b80356001600160a01b03811681146116a357600080fd5b919050565b600080604083850312156116bb57600080fd5b6116c48361168c565b946020939093013593505050565b6001600160e01b0319811681146109e357600080fd5b6000602082840312156116fa57600080fd5b8135611685816116d2565b60005b83811015611720578181015183820152602001611708565b50506000910152565b60008151808452611741816020860160208601611705565b601f01601f19169290920160200192915050565b6020815260006116856020830184611729565b60006020828403121561177a57600080fd5b5035919050565b634e487b7160e01b600052604160045260246000fd5b601f8201601f1916810167ffffffffffffffff811182821017156117bd576117bd611781565b6040525050565b600067ffffffffffffffff8211156117de576117de611781565b5060051b60200190565b600082601f8301126117f957600080fd5b81356020611806826117c4565b6040516118138282611797565b83815260059390931b850182019282810191508684111561183357600080fd5b8286015b8481101561184e5780358352918301918301611837565b509695505050505050565b600082601f83011261186a57600080fd5b813567ffffffffffffffff81111561188457611884611781565b60405161189b601f8301601f191660200182611797565b8181528460208386010111156118b057600080fd5b816020850160208301376000918101602001919091529392505050565b600080600080600060a086880312156118e557600080fd5b6118ee8661168c565b94506118fc6020870161168c565b9350604086013567ffffffffffffffff8082111561191957600080fd5b61192589838a016117e8565b9450606088013591508082111561193b57600080fd5b61194789838a016117e8565b9350608088013591508082111561195d57600080fd5b5061196a88828901611859565b9150509295509295909350565b6000806040838503121561198a57600080fd5b823567ffffffffffffffff808211156119a257600080fd5b818501915085601f8301126119b657600080fd5b813560206119c3826117c4565b6040516119d08282611797565b83815260059390931b85018201928281019150898411156119f057600080fd5b948201945b83861015611a1557611a068661168c565b825294820194908201906119f5565b96505086013592505080821115611a2b57600080fd5b50611a38858286016117e8565b9150509250929050565b600081518084526020808501945080840160005b83811015611a7257815187529582019590820190600101611a56565b509495945050505050565b6020815260006116856020830184611a42565b600060208284031215611aa257600080fd5b813567ffffffffffffffff811115611ab957600080fd5b611ac584828501611859565b949350505050565b60008060008060808587031215611ae357600080fd5b611aec8561168c565b9350602085013567ffffffffffffffff80821115611b0957600080fd5b611b15888389016117e8565b94506040870135915080821115611b2b57600080fd5b50611b3887828801611859565b949793965093946060013593505050565b600080600060608486031215611b5e57600080fd5b611b678461168c565b9250602084013567ffffffffffffffff80821115611b8457600080fd5b611b90878388016117e8565b93506040860135915080821115611ba657600080fd5b50611bb3868287016117e8565b9150509250925092565b600080600060608486031215611bd257600080fd5b833567ffffffffffffffff80821115611bea57600080fd5b611bf6878388016117e8565b94506020860135915080821115611c0c57600080fd5b50611c1986828701611859565b925050604084013590509250925092565b60008060408385031215611c3d57600080fd5b611c468361168c565b915060208301358015158114611c5b57600080fd5b809150509250929050565b60008060408385031215611c7957600080fd5b611c828361168c565b9150611c906020840161168c565b90509250929050565b600080600080600060a08688031215611cb157600080fd5b611cba8661168c565b9450611cc86020870161168c565b93506040860135925060608601359150608086013567ffffffffffffffff811115611cf257600080fd5b61196a88828901611859565b600060208284031215611d1057600080fd5b6116858261168c565b600080600060608486031215611d2e57600080fd5b611d378461168c565b95602085013595506040909401359392505050565b600181811c90821680611d6057607f821691505b602082108103611d8057634e487b7160e01b600052602260045260246000fd5b50919050565b6000808454611d9481611d4c565b60018281168015611dac5760018114611dc157611df0565b60ff1984168752821515830287019450611df0565b8860005260208060002060005b85811015611de75781548a820152908401908201611dce565b50505082870194505b505050508351611e04818360208801611705565b01949350505050565b6020808252602e908201527f455243313135353a2063616c6c6572206973206e6f7420746f6b656e206f776e60408201526d195c881bdc88185c1c1c9bdd995960921b606082015260800190565b634e487b7160e01b600052603260045260246000fd5b634e487b7160e01b600052601160045260246000fd5b600060018201611e9957611e99611e71565b5060010190565b601f8211156107f757600081815260208120601f850160051c81016020861015611ec75750805b601f850160051c820191505b81811015610c5057828155600101611ed3565b815167ffffffffffffffff811115611f0057611f00611781565b611f1481611f0e8454611d4c565b84611ea0565b602080601f831160018114611f495760008415611f315750858301515b600019600386901b1c1916600185901b178555610c50565b600085815260208120601f198616915b82811015611f7857888601518255948401946001909101908401611f59565b5085821015611f965787850151600019600388901b60f8161c191681555b5050505050600190811b01905550565b604081526000611fb96040830185611729565b90508260208301529392505050565b60208082526028908201527f455243313135353a2069647320616e6420616d6f756e7473206c656e677468206040820152670dad2e6dac2e8c6d60c31b606082015260800190565b60208082526025908201527f455243313135353a207472616e7366657220746f20746865207a65726f206164604082015264647265737360d81b606082015260800190565b6020808252602a908201527f455243313135353a20696e73756666696369656e742062616c616e636520666f60408201526939103a3930b739b332b960b11b606082015260800190565b8082018082111561043057610430611e71565b6040815260006120c56040830185611a42565b82810360208401526120d78185611a42565b95945050505050565b60208082526023908201527f455243313135353a206275726e2066726f6d20746865207a65726f206164647260408201526265737360e81b606082015260800190565b60208082526024908201527f455243313135353a206275726e20616d6f756e7420657863656564732062616c604082015263616e636560e01b606082015260800190565b60006001600160a01b03808816835280871660208401525060a0604083015261219360a0830186611a42565b82810360608401526121a58186611a42565b905082810360808401526121b98185611729565b98975050505050505050565b6000602082840312156121d757600080fd5b8151611685816116d2565b600060033d11156121fb5760046000803e5060005160e01c5b90565b600060443d101561220c5790565b6040516003193d81016004833e81513d67ffffffffffffffff816024840111818411171561223c57505050505090565b82850191508151818111156122545750505050505090565b843d870101602082850101111561226e5750505050505090565b61227d60208286010187611797565b509095945050505050565b60208082526028908201527f455243313135353a204552433131353552656365697665722072656a656374656040820152676420746f6b656e7360c01b606082015260800190565b60006001600160a01b03808816835280871660208401525084604083015283606083015260a0608083015261230860a0830184611729565b97965050505050505056fea2646970667358221220712b333de2d5f7267f93ff51f73f10fb3193fc46389381cb3f086a6df1a0bd9164736f6c63430008110033",
  "linkReferences": {},
  "deployedLinkReferences": {}
}